{
  "_format": "hh-sol-artifact-1",
  "contractName": "PagamentoDireto",
  "sourceName": "contracts/PagamentoDireto.sol",
  "abi": [
    {
      "inputs": [
        {
          "internalType": "address payable",
          "name": "_destinatario",
          "type": "address"
        }
      ],
      "stateMutability": "payable",
      "type": "constructor"
    },
    {
      "anonymous": false,
      "inputs": [
        {
          "indexed": false,
          "internalType": "address",
          "name": "de",
          "type": "address"
        },
        {
          "indexed": false,
          "internalType": "address",
          "name": "para",
          "type": "address"
        },
        {
          "indexed": false,
          "internalType": "uint256",
          "name": "valor",
          "type": "uint256"
        },
        {
          "indexed": false,
          "internalType": "uint256",
          "name": "data",
          "type": "uint256"
        }
      ],
      "name": "PagamentoEfetuado",
      "type": "event"
    },
    {
      "inputs": [],
      "name": "destinatario",
      "outputs": [
        {
          "internalType": "address payable",
          "name": "",
          "type": "address"
        }
      ],
      "stateMutability": "view",
      "type": "function"
    },
    {
      "inputs": [],
      "name": "efetuarPagamento",
      "outputs": [],
      "stateMutability": "payable",
      "type": "function"
    }
  ],
  "bytecode": "0x6080604052604051610ab4380380610ab4833981810160405281019061002591906102ab565b600073ffffffffffffffffffffffffffffffffffffffff168173ffffffffffffffffffffffffffffffffffffffff1603610094576040517f08c379a000000000000000000000000000000000000000000000000000000000815260040161008b9061035b565b60405180910390fd5b600034116100d7576040517f08c379a00000000000000000000000000000000000000000000000000000000081526004016100ce906103ed565b60405180910390fd5b806000806101000a81548173ffffffffffffffffffffffffffffffffffffffff021916908373ffffffffffffffffffffffffffffffffffffffff16021790555060008060009054906101000a900473ffffffffffffffffffffffffffffffffffffffff1673ffffffffffffffffffffffffffffffffffffffff163460405161015e9061043e565b60006040518083038185875af1925050503d806000811461019b576040519150601f19603f3d011682016040523d82523d6000602084013e6101a0565b606091505b50509050806101e4576040517f08c379a00000000000000000000000000000000000000000000000000000000081526004016101db906104c5565b60405180910390fd5b7f37584987193b82e266a35ada318cbeb455ff7aa53d383945d78e7c4b517fc49a3360008054906101000a900473ffffffffffffffffffffffffffffffffffffffff163442604051610239949392919061057e565b60405180910390a150506105c3565b600080fd5b600073ffffffffffffffffffffffffffffffffffffffff82169050919050565b60006102788261024d565b9050919050565b6102888161026d565b811461029357600080fd5b50565b6000815190506102a58161027f565b92915050565b6000602082840312156102c1576102c0610248565b5b60006102cf84828501610296565b91505092915050565b600082825260208201905092915050565b7f4f20656e64657265636f20646f2064657374696e61746172696f206e616f207060008201527f6f646520736572206e756c6f2e00000000000000000000000000000000000000602082015250565b6000610345602d836102d8565b9150610350826102e9565b604082019050919050565b6000602082019050818103600083015261037481610338565b9050919050565b7f566f6365206465766520656e7669617220756d2076616c6f72206e612063726960008201527f6163616f20646f20636f6e747261746f2e000000000000000000000000000000602082015250565b60006103d76031836102d8565b91506103e28261037b565b604082019050919050565b60006020820190508181036000830152610406816103ca565b9050919050565b600081905092915050565b50565b600061042860008361040d565b915061043382610418565b600082019050919050565b60006104498261041b565b9150819050919050565b7f41207472616e73666572656e63696120696e696369616c2070617261206f206460008201527f657374696e61746172696f2066616c686f752e00000000000000000000000000602082015250565b60006104af6033836102d8565b91506104ba82610453565b604082019050919050565b600060208201905081810360008301526104de816104a2565b9050919050565b60006104f08261024d565b9050919050565b610500816104e5565b82525050565b6000819050919050565b600061052b6105266105218461024d565b610506565b61024d565b9050919050565b600061053d82610510565b9050919050565b600061054f82610532565b9050919050565b61055f81610544565b82525050565b6000819050919050565b61057881610565565b82525050565b600060808201905061059360008301876104f7565b6105a06020830186610556565b6105ad604083018561056f565b6105ba606083018461056f565b95945050505050565b6104e2806105d26000396000f3fe6080604052600436106100295760003560e01c8063e057b0411461002e578063e5211c1414610059575b600080fd5b34801561003a57600080fd5b50610043610063565b6040516100509190610238565b60405180910390f35b610061610087565b005b60008054906101000a900473ffffffffffffffffffffffffffffffffffffffff1681565b600034116100ca576040517f08c379a00000000000000000000000000000000000000000000000000000000081526004016100c1906102d6565b60405180910390fd5b60008060009054906101000a900473ffffffffffffffffffffffffffffffffffffffff1673ffffffffffffffffffffffffffffffffffffffff163460405161011190610327565b60006040518083038185875af1925050503d806000811461014e576040519150601f19603f3d011682016040523d82523d6000602084013e610153565b606091505b5050905080610197576040517f08c379a000000000000000000000000000000000000000000000000000000000815260040161018e906103ae565b60405180910390fd5b7f37584987193b82e266a35ada318cbeb455ff7aa53d383945d78e7c4b517fc49a3360008054906101000a900473ffffffffffffffffffffffffffffffffffffffff1634426040516101ec9493929190610467565b60405180910390a150565b600073ffffffffffffffffffffffffffffffffffffffff82169050919050565b6000610222826101f7565b9050919050565b61023281610217565b82525050565b600060208201905061024d6000830184610229565b92915050565b600082825260208201905092915050565b7f4f2076616c6f7220646f20706167616d656e746f206465766520736572206d6160008201527f696f7220717565207a65726f2e00000000000000000000000000000000000000602082015250565b60006102c0602d83610253565b91506102cb82610264565b604082019050919050565b600060208201905081810360008301526102ef816102b3565b9050919050565b600081905092915050565b50565b60006103116000836102f6565b915061031c82610301565b600082019050919050565b600061033282610304565b9150819050919050565b7f41207472616e73666572656e6369612070617261206f2064657374696e61746160008201527f72696f2066616c686f752e000000000000000000000000000000000000000000602082015250565b6000610398602b83610253565b91506103a38261033c565b604082019050919050565b600060208201905081810360008301526103c78161038b565b9050919050565b60006103d9826101f7565b9050919050565b6103e9816103ce565b82525050565b6000819050919050565b600061041461040f61040a846101f7565b6103ef565b6101f7565b9050919050565b6000610426826103f9565b9050919050565b60006104388261041b565b9050919050565b6104488161042d565b82525050565b6000819050919050565b6104618161044e565b82525050565b600060808201905061047c60008301876103e0565b610489602083018661043f565b6104966040830185610458565b6104a36060830184610458565b9594505050505056fea26469706673582212206f1e7745fa4b4d7c85a75b9fe556ded4e8774b6788d48aeead63754d12858b5c64736f6c634300081c0033",
  "linkReferences": {},
  "deployedLinkReferences": {}
}