{
  "_format": "hh-sol-artifact-1",
  "contractName": "CouponNFT",
  "sourceName": "contracts/CouponNFT.sol",
  "abi": [
    {
      "inputs": [
        {
          "internalType": "address",
          "name": "initialOwner",
          "type": "address"
        }
      ],
      "stateMutability": "nonpayable",
      "type": "constructor"
    },
    {
      "inputs": [
        {
          "internalType": "address",
          "name": "sender",
          "type": "address"
        },
        {
          "internalType": "uint256",
          "name": "tokenId",
          "type": "uint256"
        },
        {
          "internalType": "address",
          "name": "owner",
          "type": "address"
        }
      ],
      "name": "ERC721IncorrectOwner",
      "type": "error"
    },
    {
      "inputs": [
        {
          "internalType": "address",
          "name": "operator",
          "type": "address"
        },
        {
          "internalType": "uint256",
          "name": "tokenId",
          "type": "uint256"
        }
      ],
      "name": "ERC721InsufficientApproval",
      "type": "error"
    },
    {
      "inputs": [
        {
          "internalType": "address",
          "name": "approver",
          "type": "address"
        }
      ],
      "name": "ERC721InvalidApprover",
      "type": "error"
    },
    {
      "inputs": [
        {
          "internalType": "address",
          "name": "operator",
          "type": "address"
        }
      ],
      "name": "ERC721InvalidOperator",
      "type": "error"
    },
    {
      "inputs": [
        {
          "internalType": "address",
          "name": "owner",
          "type": "address"
        }
      ],
      "name": "ERC721InvalidOwner",
      "type": "error"
    },
    {
      "inputs": [
        {
          "internalType": "address",
          "name": "receiver",
          "type": "address"
        }
      ],
      "name": "ERC721InvalidReceiver",
      "type": "error"
    },
    {
      "inputs": [
        {
          "internalType": "address",
          "name": "sender",
          "type": "address"
        }
      ],
      "name": "ERC721InvalidSender",
      "type": "error"
    },
    {
      "inputs": [
        {
          "internalType": "uint256",
          "name": "tokenId",
          "type": "uint256"
        }
      ],
      "name": "ERC721NonexistentToken",
      "type": "error"
    },
    {
      "inputs": [
        {
          "internalType": "address",
          "name": "owner",
          "type": "address"
        }
      ],
      "name": "OwnableInvalidOwner",
      "type": "error"
    },
    {
      "inputs": [
        {
          "internalType": "address",
          "name": "account",
          "type": "address"
        }
      ],
      "name": "OwnableUnauthorizedAccount",
      "type": "error"
    },
    {
      "anonymous": false,
      "inputs": [
        {
          "indexed": true,
          "internalType": "address",
          "name": "owner",
          "type": "address"
        },
        {
          "indexed": true,
          "internalType": "address",
          "name": "approved",
          "type": "address"
        },
        {
          "indexed": true,
          "internalType": "uint256",
          "name": "tokenId",
          "type": "uint256"
        }
      ],
      "name": "Approval",
      "type": "event"
    },
    {
      "anonymous": false,
      "inputs": [
        {
          "indexed": true,
          "internalType": "address",
          "name": "owner",
          "type": "address"
        },
        {
          "indexed": true,
          "internalType": "address",
          "name": "operator",
          "type": "address"
        },
        {
          "indexed": false,
          "internalType": "bool",
          "name": "approved",
          "type": "bool"
        }
      ],
      "name": "ApprovalForAll",
      "type": "event"
    },
    {
      "anonymous": false,
      "inputs": [
        {
          "indexed": false,
          "internalType": "uint256",
          "name": "_fromTokenId",
          "type": "uint256"
        },
        {
          "indexed": false,
          "internalType": "uint256",
          "name": "_toTokenId",
          "type": "uint256"
        }
      ],
      "name": "BatchMetadataUpdate",
      "type": "event"
    },
    {
      "anonymous": false,
      "inputs": [
        {
          "indexed": false,
          "internalType": "address",
          "name": "to",
          "type": "address"
        },
        {
          "indexed": false,
          "internalType": "uint256",
          "name": "tokenId",
          "type": "uint256"
        },
        {
          "indexed": false,
          "internalType": "string",
          "name": "uri",
          "type": "string"
        }
      ],
      "name": "CouponMinted",
      "type": "event"
    },
    {
      "anonymous": false,
      "inputs": [
        {
          "indexed": false,
          "internalType": "uint256",
          "name": "_tokenId",
          "type": "uint256"
        }
      ],
      "name": "MetadataUpdate",
      "type": "event"
    },
    {
      "anonymous": false,
      "inputs": [
        {
          "indexed": true,
          "internalType": "address",
          "name": "previousOwner",
          "type": "address"
        },
        {
          "indexed": true,
          "internalType": "address",
          "name": "newOwner",
          "type": "address"
        }
      ],
      "name": "OwnershipTransferred",
      "type": "event"
    },
    {
      "anonymous": false,
      "inputs": [
        {
          "indexed": true,
          "internalType": "address",
          "name": "from",
          "type": "address"
        },
        {
          "indexed": true,
          "internalType": "address",
          "name": "to",
          "type": "address"
        },
        {
          "indexed": true,
          "internalType": "uint256",
          "name": "tokenId",
          "type": "uint256"
        }
      ],
      "name": "Transfer",
      "type": "event"
    },
    {
      "inputs": [
        {
          "internalType": "address",
          "name": "to",
          "type": "address"
        },
        {
          "internalType": "uint256",
          "name": "tokenId",
          "type": "uint256"
        }
      ],
      "name": "approve",
      "outputs": [],
      "stateMutability": "nonpayable",
      "type": "function"
    },
    {
      "inputs": [
        {
          "internalType": "address",
          "name": "owner",
          "type": "address"
        }
      ],
      "name": "balanceOf",
      "outputs": [
        {
          "internalType": "uint256",
          "name": "",
          "type": "uint256"
        }
      ],
      "stateMutability": "view",
      "type": "function"
    },
    {
      "inputs": [
        {
          "internalType": "uint256",
          "name": "tokenId",
          "type": "uint256"
        }
      ],
      "name": "burnCoupon",
      "outputs": [],
      "stateMutability": "nonpayable",
      "type": "function"
    },
    {
      "inputs": [
        {
          "internalType": "uint256",
          "name": "tokenId",
          "type": "uint256"
        }
      ],
      "name": "getApproved",
      "outputs": [
        {
          "internalType": "address",
          "name": "",
          "type": "address"
        }
      ],
      "stateMutability": "view",
      "type": "function"
    },
    {
      "inputs": [
        {
          "internalType": "address",
          "name": "owner",
          "type": "address"
        },
        {
          "internalType": "address",
          "name": "operator",
          "type": "address"
        }
      ],
      "name": "isApprovedForAll",
      "outputs": [
        {
          "internalType": "bool",
          "name": "",
          "type": "bool"
        }
      ],
      "stateMutability": "view",
      "type": "function"
    },
    {
      "inputs": [
        {
          "internalType": "address",
          "name": "to",
          "type": "address"
        },
        {
          "internalType": "string",
          "name": "uri",
          "type": "string"
        }
      ],
      "name": "mintCoupon",
      "outputs": [],
      "stateMutability": "nonpayable",
      "type": "function"
    },
    {
      "inputs": [],
      "name": "name",
      "outputs": [
        {
          "internalType": "string",
          "name": "",
          "type": "string"
        }
      ],
      "stateMutability": "view",
      "type": "function"
    },
    {
      "inputs": [],
      "name": "nextTokenId",
      "outputs": [
        {
          "internalType": "uint256",
          "name": "",
          "type": "uint256"
        }
      ],
      "stateMutability": "view",
      "type": "function"
    },
    {
      "inputs": [],
      "name": "owner",
      "outputs": [
        {
          "internalType": "address",
          "name": "",
          "type": "address"
        }
      ],
      "stateMutability": "view",
      "type": "function"
    },
    {
      "inputs": [
        {
          "internalType": "uint256",
          "name": "tokenId",
          "type": "uint256"
        }
      ],
      "name": "ownerOf",
      "outputs": [
        {
          "internalType": "address",
          "name": "",
          "type": "address"
        }
      ],
      "stateMutability": "view",
      "type": "function"
    },
    {
      "inputs": [],
      "name": "renounceOwnership",
      "outputs": [],
      "stateMutability": "nonpayable",
      "type": "function"
    },
    {
      "inputs": [
        {
          "internalType": "address",
          "name": "from",
          "type": "address"
        },
        {
          "internalType": "address",
          "name": "to",
          "type": "address"
        },
        {
          "internalType": "uint256",
          "name": "tokenId",
          "type": "uint256"
        }
      ],
      "name": "safeTransferFrom",
      "outputs": [],
      "stateMutability": "nonpayable",
      "type": "function"
    },
    {
      "inputs": [
        {
          "internalType": "address",
          "name": "from",
          "type": "address"
        },
        {
          "internalType": "address",
          "name": "to",
          "type": "address"
        },
        {
          "internalType": "uint256",
          "name": "tokenId",
          "type": "uint256"
        },
        {
          "internalType": "bytes",
          "name": "data",
          "type": "bytes"
        }
      ],
      "name": "safeTransferFrom",
      "outputs": [],
      "stateMutability": "nonpayable",
      "type": "function"
    },
    {
      "inputs": [
        {
          "internalType": "address",
          "name": "operator",
          "type": "address"
        },
        {
          "internalType": "bool",
          "name": "approved",
          "type": "bool"
        }
      ],
      "name": "setApprovalForAll",
      "outputs": [],
      "stateMutability": "nonpayable",
      "type": "function"
    },
    {
      "inputs": [
        {
          "internalType": "bytes4",
          "name": "interfaceId",
          "type": "bytes4"
        }
      ],
      "name": "supportsInterface",
      "outputs": [
        {
          "internalType": "bool",
          "name": "",
          "type": "bool"
        }
      ],
      "stateMutability": "view",
      "type": "function"
    },
    {
      "inputs": [],
      "name": "symbol",
      "outputs": [
        {
          "internalType": "string",
          "name": "",
          "type": "string"
        }
      ],
      "stateMutability": "view",
      "type": "function"
    },
    {
      "inputs": [
        {
          "internalType": "uint256",
          "name": "tokenId",
          "type": "uint256"
        }
      ],
      "name": "tokenURI",
      "outputs": [
        {
          "internalType": "string",
          "name": "",
          "type": "string"
        }
      ],
      "stateMutability": "view",
      "type": "function"
    },
    {
      "inputs": [
        {
          "internalType": "address",
          "name": "from",
          "type": "address"
        },
        {
          "internalType": "address",
          "name": "to",
          "type": "address"
        },
        {
          "internalType": "uint256",
          "name": "tokenId",
          "type": "uint256"
        }
      ],
      "name": "transferFrom",
      "outputs": [],
      "stateMutability": "nonpayable",
      "type": "function"
    },
    {
      "inputs": [
        {
          "internalType": "address",
          "name": "newOwner",
          "type": "address"
        }
      ],
      "name": "transferOwnership",
      "outputs": [],
      "stateMutability": "nonpayable",
      "type": "function"
    }
  ],
  "bytecode": "0x608060405234801561001057600080fd5b50604051612ea0380380612ea083398181016040528101906100329190610272565b806040518060400160405280600981526020017f436f75706f6e4e465400000000000000000000000000000000000000000000008152506040518060400160405280600381526020017f43504e000000000000000000000000000000000000000000000000000000000081525081600090816100ae91906104ef565b5080600190816100be91906104ef565b505050600073ffffffffffffffffffffffffffffffffffffffff168173ffffffffffffffffffffffffffffffffffffffff16036101335760006040517f1e4fbdf700000000000000000000000000000000000000000000000000000000815260040161012a91906105d0565b60405180910390fd5b6101428161014960201b60201c565b50506105eb565b6000600760009054906101000a900473ffffffffffffffffffffffffffffffffffffffff16905081600760006101000a81548173ffffffffffffffffffffffffffffffffffffffff021916908373ffffffffffffffffffffffffffffffffffffffff1602179055508173ffffffffffffffffffffffffffffffffffffffff168173ffffffffffffffffffffffffffffffffffffffff167f8be0079c531659141344cd1fd0a4f28419497f9722a3daafe3b4186f6b6457e060405160405180910390a35050565b600080fd5b600073ffffffffffffffffffffffffffffffffffffffff82169050919050565b600061023f82610214565b9050919050565b61024f81610234565b811461025a57600080fd5b50565b60008151905061026c81610246565b92915050565b6000602082840312156102885761028761020f565b5b60006102968482850161025d565b91505092915050565b600081519050919050565b7f4e487b7100000000000000000000000000000000000000000000000000000000600052604160045260246000fd5b7f4e487b7100000000000000000000000000000000000000000000000000000000600052602260045260246000fd5b6000600282049050600182168061032057607f821691505b602082108103610333576103326102d9565b5b50919050565b60008190508160005260206000209050919050565b60006020601f8301049050919050565b600082821b905092915050565b60006008830261039b7fffffffffffffffffffffffffffffffffffffffffffffffffffffffffffffffff8261035e565b6103a5868361035e565b95508019841693508086168417925050509392505050565b6000819050919050565b6000819050919050565b60006103ec6103e76103e2846103bd565b6103c7565b6103bd565b9050919050565b6000819050919050565b610406836103d1565b61041a610412826103f3565b84845461036b565b825550505050565b600090565b61042f610422565b61043a8184846103fd565b505050565b5b8181101561045e57610453600082610427565b600181019050610440565b5050565b601f8211156104a35761047481610339565b61047d8461034e565b8101602085101561048c578190505b6104a06104988561034e565b83018261043f565b50505b505050565b600082821c905092915050565b60006104c6600019846008026104a8565b1980831691505092915050565b60006104df83836104b5565b9150826002028217905092915050565b6104f88261029f565b67ffffffffffffffff811115610511576105106102aa565b5b61051b8254610308565b610526828285610462565b600060209050601f8311600181146105595760008415610547578287015190505b61055185826104d3565b8655506105b9565b601f19841661056786610339565b60005b8281101561058f5784890151825560018201915060208501945060208101905061056a565b868310156105ac57848901516105a8601f8916826104b5565b8355505b6001600288020188555050505b505050505050565b6105ca81610234565b82525050565b60006020820190506105e560008301846105c1565b92915050565b6128a6806105fa6000396000f3fe608060405234801561001057600080fd5b50600436106101205760003560e01c8063715018a6116100ad578063b88d4fde11610071578063b88d4fde146102f3578063c87b56dd1461030f578063e985e9c51461033f578063f266c43e1461036f578063f2fde38b1461038b57610120565b8063715018a61461027357806375794a3c1461027d5780638da5cb5b1461029b57806395d89b41146102b9578063a22cb465146102d757610120565b8063095ea7b3116100f4578063095ea7b3146101bf57806323b872dd146101db57806342842e0e146101f75780636352211e1461021357806370a082311461024357610120565b80621f0ff01461012557806301ffc9a71461014157806306fdde0314610171578063081812fc1461018f575b600080fd5b61013f600480360381019061013a9190611c32565b6103a7565b005b61015b60048036038101906101569190611cb7565b610429565b6040516101689190611cff565b60405180910390f35b61017961048a565b6040516101869190611daa565b60405180910390f35b6101a960048036038101906101a49190611c32565b61051c565b6040516101b69190611e0d565b60405180910390f35b6101d960048036038101906101d49190611e54565b610538565b005b6101f560048036038101906101f09190611e94565b61054e565b005b610211600480360381019061020c9190611e94565b610650565b005b61022d60048036038101906102289190611c32565b610670565b60405161023a9190611e0d565b60405180910390f35b61025d60048036038101906102589190611ee7565b610682565b60405161026a9190611f23565b60405180910390f35b61027b61073c565b005b610285610750565b6040516102929190611f23565b60405180910390f35b6102a3610756565b6040516102b09190611e0d565b60405180910390f35b6102c1610780565b6040516102ce9190611daa565b60405180910390f35b6102f160048036038101906102ec9190611f6a565b610812565b005b61030d600480360381019061030891906120df565b610828565b005b61032960048036038101906103249190611c32565b61084d565b6040516103369190611daa565b60405180910390f35b61035960048036038101906103549190612162565b610960565b6040516103669190611cff565b60405180910390f35b61038960048036038101906103849190612243565b6109f4565b005b6103a560048036038101906103a09190611ee7565b610a6b565b005b3373ffffffffffffffffffffffffffffffffffffffff166103c782610670565b73ffffffffffffffffffffffffffffffffffffffff161461041d576040517f08c379a0000000000000000000000000000000000000000000000000000000008152600401610414906122eb565b60405180910390fd5b61042681610af1565b50565b6000634906490660e01b7bffffffffffffffffffffffffffffffffffffffffffffffffffffffff1916827bffffffffffffffffffffffffffffffffffffffffffffffffffffffff19161480610483575061048282610b77565b5b9050919050565b6060600080546104999061233a565b80601f01602080910402602001604051908101604052809291908181526020018280546104c59061233a565b80156105125780601f106104e757610100808354040283529160200191610512565b820191906000526020600020905b8154815290600101906020018083116104f557829003601f168201915b5050505050905090565b600061052782610c59565b5061053182610ce1565b9050919050565b61054a8282610545610d1e565b610d26565b5050565b600073ffffffffffffffffffffffffffffffffffffffff168273ffffffffffffffffffffffffffffffffffffffff16036105c05760006040517f64a0ae920000000000000000000000000000000000000000000000000000000081526004016105b79190611e0d565b60405180910390fd5b60006105d483836105cf610d1e565b610d38565b90508373ffffffffffffffffffffffffffffffffffffffff168173ffffffffffffffffffffffffffffffffffffffff161461064a578382826040517f64283d7b0000000000000000000000000000000000000000000000000000000081526004016106419392919061236b565b60405180910390fd5b50505050565b61066b83838360405180602001604052806000815250610828565b505050565b600061067b82610c59565b9050919050565b60008073ffffffffffffffffffffffffffffffffffffffff168273ffffffffffffffffffffffffffffffffffffffff16036106f55760006040517f89c62b640000000000000000000000000000000000000000000000000000000081526004016106ec9190611e0d565b60405180910390fd5b600360008373ffffffffffffffffffffffffffffffffffffffff1673ffffffffffffffffffffffffffffffffffffffff168152602001908152602001600020549050919050565b610744610f52565b61074e6000610fd9565b565b60085481565b6000600760009054906101000a900473ffffffffffffffffffffffffffffffffffffffff16905090565b60606001805461078f9061233a565b80601f01602080910402602001604051908101604052809291908181526020018280546107bb9061233a565b80156108085780601f106107dd57610100808354040283529160200191610808565b820191906000526020600020905b8154815290600101906020018083116107eb57829003601f168201915b5050505050905090565b61082461081d610d1e565b838361109f565b5050565b61083384848461054e565b61084761083e610d1e565b8585858561120e565b50505050565b606061085882610c59565b5060006006600084815260200190815260200160002080546108799061233a565b80601f01602080910402602001604051908101604052809291908181526020018280546108a59061233a565b80156108f25780601f106108c7576101008083540402835291602001916108f2565b820191906000526020600020905b8154815290600101906020018083116108d557829003601f168201915b5050505050905060006109036113bf565b9050600081510361091857819250505061095b565b60008251111561094d5780826040516020016109359291906123de565b6040516020818303038152906040529250505061095b565b610956846113d6565b925050505b919050565b6000600560008473ffffffffffffffffffffffffffffffffffffffff1673ffffffffffffffffffffffffffffffffffffffff16815260200190815260200160002060008373ffffffffffffffffffffffffffffffffffffffff1673ffffffffffffffffffffffffffffffffffffffff16815260200190815260200160002060009054906101000a900460ff16905092915050565b6109fc610f52565b600060086000815480929190610a1190612431565b919050559050610a21838261143f565b610a2b818361145d565b7face166e6a3d0d9944b5d0ec78de937bdecec8dae545bab3e29245431a256b4f3838284604051610a5e93929190612479565b60405180910390a1505050565b610a73610f52565b600073ffffffffffffffffffffffffffffffffffffffff168173ffffffffffffffffffffffffffffffffffffffff1603610ae55760006040517f1e4fbdf7000000000000000000000000000000000000000000000000000000008152600401610adc9190611e0d565b60405180910390fd5b610aee81610fd9565b50565b6000610b006000836000610d38565b9050600073ffffffffffffffffffffffffffffffffffffffff168173ffffffffffffffffffffffffffffffffffffffff1603610b7357816040517f7e273289000000000000000000000000000000000000000000000000000000008152600401610b6a9190611f23565b60405180910390fd5b5050565b60007f80ac58cd000000000000000000000000000000000000000000000000000000007bffffffffffffffffffffffffffffffffffffffffffffffffffffffff1916827bffffffffffffffffffffffffffffffffffffffffffffffffffffffff19161480610c4257507f5b5e139f000000000000000000000000000000000000000000000000000000007bffffffffffffffffffffffffffffffffffffffffffffffffffffffff1916827bffffffffffffffffffffffffffffffffffffffffffffffffffffffff1916145b80610c525750610c51826114b9565b5b9050919050565b600080610c6583611523565b9050600073ffffffffffffffffffffffffffffffffffffffff168173ffffffffffffffffffffffffffffffffffffffff1603610cd857826040517f7e273289000000000000000000000000000000000000000000000000000000008152600401610ccf9190611f23565b60405180910390fd5b80915050919050565b60006004600083815260200190815260200160002060009054906101000a900473ffffffffffffffffffffffffffffffffffffffff169050919050565b600033905090565b610d338383836001611560565b505050565b600080610d4484611523565b9050600073ffffffffffffffffffffffffffffffffffffffff168373ffffffffffffffffffffffffffffffffffffffff1614610d8657610d85818486611725565b5b600073ffffffffffffffffffffffffffffffffffffffff168173ffffffffffffffffffffffffffffffffffffffff1614610e1757610dc8600085600080611560565b6001600360008373ffffffffffffffffffffffffffffffffffffffff1673ffffffffffffffffffffffffffffffffffffffff168152602001908152602001600020600082825403925050819055505b600073ffffffffffffffffffffffffffffffffffffffff168573ffffffffffffffffffffffffffffffffffffffff1614610e9a576001600360008773ffffffffffffffffffffffffffffffffffffffff1673ffffffffffffffffffffffffffffffffffffffff168152602001908152602001600020600082825401925050819055505b846002600086815260200190815260200160002060006101000a81548173ffffffffffffffffffffffffffffffffffffffff021916908373ffffffffffffffffffffffffffffffffffffffff160217905550838573ffffffffffffffffffffffffffffffffffffffff168273ffffffffffffffffffffffffffffffffffffffff167fddf252ad1be2c89b69c2b068fc378daa952ba7f163c4a11628f55a4df523b3ef60405160405180910390a4809150509392505050565b610f5a610d1e565b73ffffffffffffffffffffffffffffffffffffffff16610f78610756565b73ffffffffffffffffffffffffffffffffffffffff1614610fd757610f9b610d1e565b6040517f118cdaa7000000000000000000000000000000000000000000000000000000008152600401610fce9190611e0d565b60405180910390fd5b565b6000600760009054906101000a900473ffffffffffffffffffffffffffffffffffffffff16905081600760006101000a81548173ffffffffffffffffffffffffffffffffffffffff021916908373ffffffffffffffffffffffffffffffffffffffff1602179055508173ffffffffffffffffffffffffffffffffffffffff168173ffffffffffffffffffffffffffffffffffffffff167f8be0079c531659141344cd1fd0a4f28419497f9722a3daafe3b4186f6b6457e060405160405180910390a35050565b600073ffffffffffffffffffffffffffffffffffffffff168273ffffffffffffffffffffffffffffffffffffffff160361111057816040517f5b08ba180000000000000000000000000000000000000000000000000000000081526004016111079190611e0d565b60405180910390fd5b80600560008573ffffffffffffffffffffffffffffffffffffffff1673ffffffffffffffffffffffffffffffffffffffff16815260200190815260200160002060008473ffffffffffffffffffffffffffffffffffffffff1673ffffffffffffffffffffffffffffffffffffffff16815260200190815260200160002060006101000a81548160ff0219169083151502179055508173ffffffffffffffffffffffffffffffffffffffff168373ffffffffffffffffffffffffffffffffffffffff167f17307eab39ab6107e8899845ad3d59bd9653f200f220920489ca2b5937696c31836040516112019190611cff565b60405180910390a3505050565b60008373ffffffffffffffffffffffffffffffffffffffff163b11156113b8578273ffffffffffffffffffffffffffffffffffffffff1663150b7a02868685856040518563ffffffff1660e01b815260040161126d949392919061250c565b6020604051808303816000875af19250505080156112a957506040513d601f19601f820116820180604052508101906112a6919061256d565b60015b61132d573d80600081146112d9576040519150601f19603f3d011682016040523d82523d6000602084013e6112de565b606091505b50600081510361132557836040517f64a0ae9200000000000000000000000000000000000000000000000000000000815260040161131c9190611e0d565b60405180910390fd5b805160208201fd5b63150b7a0260e01b7bffffffffffffffffffffffffffffffffffffffffffffffffffffffff1916817bffffffffffffffffffffffffffffffffffffffffffffffffffffffff1916146113b657836040517f64a0ae920000000000000000000000000000000000000000000000000000000081526004016113ad9190611e0d565b60405180910390fd5b505b5050505050565b606060405180602001604052806000815250905090565b60606113e182610c59565b5060006113ec6113bf565b9050600081511161140c5760405180602001604052806000815250611437565b80611416846117e9565b6040516020016114279291906123de565b6040516020818303038152906040525b915050919050565b6114598282604051806020016040528060008152506118b7565b5050565b8060066000848152602001908152602001600020908161147d9190612746565b507ff8e1a15aba9398e019f0b49df1a4fde98ee17ae345cb5f6b5e2c27f5033e8ce7826040516114ad9190611f23565b60405180910390a15050565b60007f01ffc9a7000000000000000000000000000000000000000000000000000000007bffffffffffffffffffffffffffffffffffffffffffffffffffffffff1916827bffffffffffffffffffffffffffffffffffffffffffffffffffffffff1916149050919050565b60006002600083815260200190815260200160002060009054906101000a900473ffffffffffffffffffffffffffffffffffffffff169050919050565b80806115995750600073ffffffffffffffffffffffffffffffffffffffff168273ffffffffffffffffffffffffffffffffffffffff1614155b156116cd5760006115a984610c59565b9050600073ffffffffffffffffffffffffffffffffffffffff168373ffffffffffffffffffffffffffffffffffffffff161415801561161457508273ffffffffffffffffffffffffffffffffffffffff168173ffffffffffffffffffffffffffffffffffffffff1614155b801561162757506116258184610960565b155b1561166957826040517fa9fbf51f0000000000000000000000000000000000000000000000000000000081526004016116609190611e0d565b60405180910390fd5b81156116cb57838573ffffffffffffffffffffffffffffffffffffffff168273ffffffffffffffffffffffffffffffffffffffff167f8c5be1e5ebec7d5bd14f71427d1e84f3dd0314c0f7b2291e5b200ac8c7c3b92560405160405180910390a45b505b836004600085815260200190815260200160002060006101000a81548173ffffffffffffffffffffffffffffffffffffffff021916908373ffffffffffffffffffffffffffffffffffffffff16021790555050505050565b6117308383836118db565b6117e457600073ffffffffffffffffffffffffffffffffffffffff168373ffffffffffffffffffffffffffffffffffffffff16036117a557806040517f7e27328900000000000000000000000000000000000000000000000000000000815260040161179c9190611f23565b60405180910390fd5b81816040517f177e802f0000000000000000000000000000000000000000000000000000000081526004016117db929190612818565b60405180910390fd5b505050565b6060600060016117f88461199c565b01905060008167ffffffffffffffff81111561181757611816611fb4565b5b6040519080825280601f01601f1916602001820160405280156118495781602001600182028036833780820191505090505b509050600082602083010190505b6001156118ac578080600190039150507f3031323334353637383961626364656600000000000000000000000000000000600a86061a8153600a85816118a05761189f612841565b5b04945060008503611857575b819350505050919050565b6118c18383611aef565b6118d66118cc610d1e565b600085858561120e565b505050565b60008073ffffffffffffffffffffffffffffffffffffffff168373ffffffffffffffffffffffffffffffffffffffff161415801561199357508273ffffffffffffffffffffffffffffffffffffffff168473ffffffffffffffffffffffffffffffffffffffff16148061195457506119538484610960565b5b8061199257508273ffffffffffffffffffffffffffffffffffffffff1661197a83610ce1565b73ffffffffffffffffffffffffffffffffffffffff16145b5b90509392505050565b600080600090507a184f03e93ff9f4daa797ed6e38ed64bf6a1f01000000000000000083106119fa577a184f03e93ff9f4daa797ed6e38ed64bf6a1f01000000000000000083816119f0576119ef612841565b5b0492506040810190505b6d04ee2d6d415b85acef81000000008310611a37576d04ee2d6d415b85acef81000000008381611a2d57611a2c612841565b5b0492506020810190505b662386f26fc100008310611a6657662386f26fc100008381611a5c57611a5b612841565b5b0492506010810190505b6305f5e1008310611a8f576305f5e1008381611a8557611a84612841565b5b0492506008810190505b6127108310611ab4576127108381611aaa57611aa9612841565b5b0492506004810190505b60648310611ad75760648381611acd57611acc612841565b5b0492506002810190505b600a8310611ae6576001810190505b80915050919050565b600073ffffffffffffffffffffffffffffffffffffffff168273ffffffffffffffffffffffffffffffffffffffff1603611b615760006040517f64a0ae92000000000000000000000000000000000000000000000000000000008152600401611b589190611e0d565b60405180910390fd5b6000611b6f83836000610d38565b9050600073ffffffffffffffffffffffffffffffffffffffff168173ffffffffffffffffffffffffffffffffffffffff1614611be35760006040517f73c6ac6e000000000000000000000000000000000000000000000000000000008152600401611bda9190611e0d565b60405180910390fd5b505050565b6000604051905090565b600080fd5b600080fd5b6000819050919050565b611c0f81611bfc565b8114611c1a57600080fd5b50565b600081359050611c2c81611c06565b92915050565b600060208284031215611c4857611c47611bf2565b5b6000611c5684828501611c1d565b91505092915050565b60007fffffffff0000000000000000000000000000000000000000000000000000000082169050919050565b611c9481611c5f565b8114611c9f57600080fd5b50565b600081359050611cb181611c8b565b92915050565b600060208284031215611ccd57611ccc611bf2565b5b6000611cdb84828501611ca2565b91505092915050565b60008115159050919050565b611cf981611ce4565b82525050565b6000602082019050611d146000830184611cf0565b92915050565b600081519050919050565b600082825260208201905092915050565b60005b83811015611d54578082015181840152602081019050611d39565b60008484015250505050565b6000601f19601f8301169050919050565b6000611d7c82611d1a565b611d868185611d25565b9350611d96818560208601611d36565b611d9f81611d60565b840191505092915050565b60006020820190508181036000830152611dc48184611d71565b905092915050565b600073ffffffffffffffffffffffffffffffffffffffff82169050919050565b6000611df782611dcc565b9050919050565b611e0781611dec565b82525050565b6000602082019050611e226000830184611dfe565b92915050565b611e3181611dec565b8114611e3c57600080fd5b50565b600081359050611e4e81611e28565b92915050565b60008060408385031215611e6b57611e6a611bf2565b5b6000611e7985828601611e3f565b9250506020611e8a85828601611c1d565b9150509250929050565b600080600060608486031215611ead57611eac611bf2565b5b6000611ebb86828701611e3f565b9350506020611ecc86828701611e3f565b9250506040611edd86828701611c1d565b9150509250925092565b600060208284031215611efd57611efc611bf2565b5b6000611f0b84828501611e3f565b91505092915050565b611f1d81611bfc565b82525050565b6000602082019050611f386000830184611f14565b92915050565b611f4781611ce4565b8114611f5257600080fd5b50565b600081359050611f6481611f3e565b92915050565b60008060408385031215611f8157611f80611bf2565b5b6000611f8f85828601611e3f565b9250506020611fa085828601611f55565b9150509250929050565b600080fd5b600080fd5b7f4e487b7100000000000000000000000000000000000000000000000000000000600052604160045260246000fd5b611fec82611d60565b810181811067ffffffffffffffff8211171561200b5761200a611fb4565b5b80604052505050565b600061201e611be8565b905061202a8282611fe3565b919050565b600067ffffffffffffffff82111561204a57612049611fb4565b5b61205382611d60565b9050602081019050919050565b82818337600083830152505050565b600061208261207d8461202f565b612014565b90508281526020810184848401111561209e5761209d611faf565b5b6120a9848285612060565b509392505050565b600082601f8301126120c6576120c5611faa565b5b81356120d684826020860161206f565b91505092915050565b600080600080608085870312156120f9576120f8611bf2565b5b600061210787828801611e3f565b945050602061211887828801611e3f565b935050604061212987828801611c1d565b925050606085013567ffffffffffffffff81111561214a57612149611bf7565b5b612156878288016120b1565b91505092959194509250565b6000806040838503121561217957612178611bf2565b5b600061218785828601611e3f565b925050602061219885828601611e3f565b9150509250929050565b600067ffffffffffffffff8211156121bd576121bc611fb4565b5b6121c682611d60565b9050602081019050919050565b60006121e66121e1846121a2565b612014565b90508281526020810184848401111561220257612201611faf565b5b61220d848285612060565b509392505050565b600082601f83011261222a57612229611faa565b5b813561223a8482602086016121d3565b91505092915050565b6000806040838503121561225a57612259611bf2565b5b600061226885828601611e3f565b925050602083013567ffffffffffffffff81111561228957612288611bf7565b5b61229585828601612215565b9150509250929050565b7f4e6f74206f776e65720000000000000000000000000000000000000000000000600082015250565b60006122d5600983611d25565b91506122e08261229f565b602082019050919050565b60006020820190508181036000830152612304816122c8565b9050919050565b7f4e487b7100000000000000000000000000000000000000000000000000000000600052602260045260246000fd5b6000600282049050600182168061235257607f821691505b6020821081036123655761236461230b565b5b50919050565b60006060820190506123806000830186611dfe565b61238d6020830185611f14565b61239a6040830184611dfe565b949350505050565b600081905092915050565b60006123b882611d1a565b6123c281856123a2565b93506123d2818560208601611d36565b80840191505092915050565b60006123ea82856123ad565b91506123f682846123ad565b91508190509392505050565b7f4e487b7100000000000000000000000000000000000000000000000000000000600052601160045260246000fd5b600061243c82611bfc565b91507fffffffffffffffffffffffffffffffffffffffffffffffffffffffffffffffff820361246e5761246d612402565b5b600182019050919050565b600060608201905061248e6000830186611dfe565b61249b6020830185611f14565b81810360408301526124ad8184611d71565b9050949350505050565b600081519050919050565b600082825260208201905092915050565b60006124de826124b7565b6124e881856124c2565b93506124f8818560208601611d36565b61250181611d60565b840191505092915050565b60006080820190506125216000830187611dfe565b61252e6020830186611dfe565b61253b6040830185611f14565b818103606083015261254d81846124d3565b905095945050505050565b60008151905061256781611c8b565b92915050565b60006020828403121561258357612582611bf2565b5b600061259184828501612558565b91505092915050565b60008190508160005260206000209050919050565b60006020601f8301049050919050565b600082821b905092915050565b6000600883026125fc7fffffffffffffffffffffffffffffffffffffffffffffffffffffffffffffffff826125bf565b61260686836125bf565b95508019841693508086168417925050509392505050565b6000819050919050565b600061264361263e61263984611bfc565b61261e565b611bfc565b9050919050565b6000819050919050565b61265d83612628565b6126716126698261264a565b8484546125cc565b825550505050565b600090565b612686612679565b612691818484612654565b505050565b5b818110156126b5576126aa60008261267e565b600181019050612697565b5050565b601f8211156126fa576126cb8161259a565b6126d4846125af565b810160208510156126e3578190505b6126f76126ef856125af565b830182612696565b50505b505050565b600082821c905092915050565b600061271d600019846008026126ff565b1980831691505092915050565b6000612736838361270c565b9150826002028217905092915050565b61274f82611d1a565b67ffffffffffffffff81111561276857612767611fb4565b5b612772825461233a565b61277d8282856126b9565b600060209050601f8311600181146127b0576000841561279e578287015190505b6127a8858261272a565b865550612810565b601f1984166127be8661259a565b60005b828110156127e6578489015182556001820191506020850194506020810190506127c1565b8683101561280357848901516127ff601f89168261270c565b8355505b6001600288020188555050505b505050505050565b600060408201905061282d6000830185611dfe565b61283a6020830184611f14565b9392505050565b7f4e487b7100000000000000000000000000000000000000000000000000000000600052601260045260246000fdfea26469706673582212209d73972d3d071d1ea5f81fc09f5f2baf5281e666ff125e38bbf9b5891c107f8164736f6c634300081c0033",
  "linkReferences": {},
  "deployedLinkReferences": {}
}